:060000000A128A11EF2F25
:100C6A003F3406345B344F3466346D347D34073494
:100C7A007F346F3477347C3439345E347934713468
:100C8A007E088A007F08820045260A128A1180009F
:100C9A00840A04087D0603190034FF0A0319FE0AB0
:100CAA00492E7008710403190800C730F2005D2E3E
:100CBA00F20B5C2E602E612E0130F0020030031C14
:100CCA00F103F102562E83160317890183160313C3
:100CDA008601881308138312031388170817FF3035
:100CEA008600F430F0000130F1000A128A1156260B
:100CFA000A128A11831203138601F430F0000130BC
:100D0A00F1000A128A1156260A128A11FF3083123A
:100D1A0003138600F430F0000130F1000A128A1140
:100D2A0056260A128A11831203138601F430F00040
:100D3A000130F1000A128A115626080083120313A1
:100D4A00B101FC1FAF2EFB09FC09FB0A0319FC0ABF
:100D5A00B101B10AFA1FB62EF909FA09F90A0319FB
:100D6A00FA0A79087A040319E32EB001B00AFA1BC9
:100D7A00CA2E01300310F90DFA0DFF3E031DBF2ED6
:100D8A000130FD007D08B007BC2E7A087C02031DE5
:100D9A00D02E79087B02031CD82E7908FB027A0828
:100DAA00031CFC03FC0201300310FA0CF90CFF3E91
:100DBA00031DD92E0130B002031DCA2E31080319B2
:100DCA00EB2EFB09FC09FB0A0319FC0A7C08FA0052
:100DDA007B08F900080083120313BB01B901BA01A9
:100DEA000A128A1168260A128A11831203133B080F
:100DFA000A128A1196270A128A11013083120313E2
:100E0A00B9070318BA0A0030BA073A08803AFF004D
:100E1A0080307F02031D132FC9303902031C332F80
:100E2A0083120313B901BA016430F9000030FA00E1
:100E3A000130B5003508BB073B08B600B7013608D4
:100E4A00FB003708FC000A128A11A3260A128A112B
:100E5A00790883120313B8003808BB000130F00088
:100E6A000030F1000A128A1156260A128A11FA2E45
:100E7A00F601F11F472FF009F109F00A0319F10AE7
:100E8A00F601F60AF31F522FF209F309F20A0319BF
:100E9A00F30A0130F4007408F606F701F801700845
:100EAA0071040319892FF501F50AF11B682F013026
:100EBA000310F00DF10DFF3E031D5D2F0130F4000C
:100ECA007408F5075A2F01300310F70DF80DFF3E8D
:100EDA00031D692F71087302031D752F70087202B2
:100EEA00031C7E2F7008F2027108031CF303F3023D
:100EFA00771401300310F10CF00CFF3E031D7F2F15
:100F0A000130F502031D682F76080319912FF7099E
:100F1A00F809F70A0319F80A7808F1007708F000C7
:100F2A00080083120313B400DD2F88130A30F90076
:100F3A000030FA003408B200B3013208FB0033086B
:100F4A00FC000A128A11A3260A128A117908203E85
:100F5A008400831300088312031386000817E52F01
:100F6A0008130A30F9000030FA000A30F0000030A5
:100F7A00F1003408B200B3013208F2003308F3007A
:100F8A000A128A113D270A128A117108FC00700898
:100F9A00FB000A128A11A3260A128A117908203E36
:100FAA008400831300088312031386008817E52F31
:100FBA003C08003A03199A2F013A0319B52FE52F75
:100FCA000130B2003208BC073C080139B3003308CB
:100FDA00BC00080083133030FD000630FE003530B7
:100FEA00FF00203084000A128A114926BC018301BD
:060FFA000A128A11F02E1C
:02400E00D4EFED
:00000001FF
